{
  "_format": "hh-sol-artifact-1",
  "contractName": "WalletFactory",
  "sourceName": "contracts/Factory.sol",
  "abi": [
    {
      "inputs": [],
      "name": "CallFailed",
      "type": "error"
    },
    {
      "inputs": [],
      "name": "CanNotUseSameProofAgain",
      "type": "error"
    },
    {
      "inputs": [],
      "name": "EthTransferFailed",
      "type": "error"
    },
    {
      "inputs": [],
      "name": "IncorrectSecret",
      "type": "error"
    },
    {
      "inputs": [],
      "name": "InfufficientETHBalance",
      "type": "error"
    },
    {
      "inputs": [],
      "name": "InvalidCalldata",
      "type": "error"
    },
    {
      "inputs": [],
      "name": "InvalidCreds",
      "type": "error"
    },
    {
      "inputs": [],
      "name": "InvalidHash",
      "type": "error"
    },
    {
      "inputs": [],
      "name": "InvalidMsgSender",
      "type": "error"
    },
    {
      "inputs": [],
      "name": "UserAlreadyRegistered",
      "type": "error"
    },
    {
      "inputs": [],
      "name": "UserNotRegistered",
      "type": "error"
    },
    {
      "inputs": [],
      "name": "ZKPVerificationFailed",
      "type": "error"
    },
    {
      "inputs": [],
      "name": "ZeroAmountDeposit",
      "type": "error"
    },
    {
      "anonymous": false,
      "inputs": [
        {
          "indexed": true,
          "internalType": "bytes32",
          "name": "_hash",
          "type": "bytes32"
        },
        {
          "indexed": true,
          "internalType": "string",
          "name": "_userName",
          "type": "string"
        },
        {
          "indexed": true,
          "internalType": "uint256",
          "name": "_timestamp",
          "type": "uint256"
        }
      ],
      "name": "UserRegistered",
      "type": "event"
    },
    {
      "anonymous": false,
      "inputs": [
        {
          "indexed": true,
          "internalType": "string",
          "name": "_username",
          "type": "string"
        },
        {
          "indexed": true,
          "internalType": "address",
          "name": "_walletAddress",
          "type": "address"
        }
      ],
      "name": "WalletCalled",
      "type": "event"
    },
    {
      "inputs": [
        {
          "internalType": "uint256[2]",
          "name": "_pA",
          "type": "uint256[2]"
        },
        {
          "internalType": "uint256[2][2]",
          "name": "_pB",
          "type": "uint256[2][2]"
        },
        {
          "internalType": "uint256[2]",
          "name": "_pC",
          "type": "uint256[2]"
        },
        {
          "internalType": "uint256[3]",
          "name": "_pubSignals",
          "type": "uint256[3]"
        },
        {
          "internalType": "string",
          "name": "_userName",
          "type": "string"
        },
        {
          "internalType": "bytes[]",
          "name": "_callData",
          "type": "bytes[]"
        }
      ],
      "name": "callWallet",
      "outputs": [],
      "stateMutability": "nonpayable",
      "type": "function"
    },
    {
      "inputs": [
        {
          "internalType": "bytes[]",
          "name": "_calldata",
          "type": "bytes[]"
        }
      ],
      "name": "hashAndSplitCalldata",
      "outputs": [
        {
          "internalType": "bytes32",
          "name": "paddedI",
          "type": "bytes32"
        },
        {
          "internalType": "bytes32",
          "name": "paddedJ",
          "type": "bytes32"
        }
      ],
      "stateMutability": "view",
      "type": "function"
    },
    {
      "inputs": [
        {
          "internalType": "string",
          "name": "",
          "type": "string"
        }
      ],
      "name": "isUserNameTaken",
      "outputs": [
        {
          "internalType": "bool",
          "name": "",
          "type": "bool"
        }
      ],
      "stateMutability": "view",
      "type": "function"
    },
    {
      "inputs": [
        {
          "internalType": "bytes32",
          "name": "",
          "type": "bytes32"
        }
      ],
      "name": "nullifier",
      "outputs": [
        {
          "internalType": "bool",
          "name": "",
          "type": "bool"
        }
      ],
      "stateMutability": "view",
      "type": "function"
    },
    {
      "inputs": [
        {
          "internalType": "bytes32",
          "name": "_hash",
          "type": "bytes32"
        },
        {
          "internalType": "string",
          "name": "_userName",
          "type": "string"
        }
      ],
      "name": "registerUser",
      "outputs": [],
      "stateMutability": "nonpayable",
      "type": "function"
    },
    {
      "inputs": [
        {
          "internalType": "string",
          "name": "",
          "type": "string"
        }
      ],
      "name": "usernameToPassword",
      "outputs": [
        {
          "internalType": "bytes32",
          "name": "",
          "type": "bytes32"
        }
      ],
      "stateMutability": "view",
      "type": "function"
    },
    {
      "inputs": [
        {
          "internalType": "string",
          "name": "",
          "type": "string"
        }
      ],
      "name": "usernameToWalletAddress",
      "outputs": [
        {
          "internalType": "address",
          "name": "",
          "type": "address"
        }
      ],
      "stateMutability": "view",
      "type": "function"
    },
    {
      "inputs": [
        {
          "internalType": "uint256[2]",
          "name": "_pA",
          "type": "uint256[2]"
        },
        {
          "internalType": "uint256[2][2]",
          "name": "_pB",
          "type": "uint256[2][2]"
        },
        {
          "internalType": "uint256[2]",
          "name": "_pC",
          "type": "uint256[2]"
        },
        {
          "internalType": "uint256[3]",
          "name": "_pubSignals",
          "type": "uint256[3]"
        }
      ],
      "name": "verifyProof",
      "outputs": [
        {
          "internalType": "bool",
          "name": "",
          "type": "bool"
        }
      ],
      "stateMutability": "view",
      "type": "function"
    }
  ],
  "bytecode": "0x608060405234801561001057600080fd5b5061164c806100206000396000f3fe608060405234801561001057600080fd5b50600436106100885760003560e01c806386b0c88b1161005b57806386b0c88b146101205780639617af801461016c578063d72a0b67146101a5578063f54d901b146101c857600080fd5b806311479fea1461008d5780633d4a068d146100b557806343c3ecd2146100e35780634a54315c1461010b575b600080fd5b6100a061009b366004610b1f565b6101db565b60405190151581526020015b60405180910390f35b6100a06100c3366004610c3f565b805160208183018101805160008252928201919093012091525460ff1681565b6100f66100f1366004610d30565b6106f6565b604080519283526020830191909152016100ac565b61011e610119366004610d65565b610749565b005b61015461012e366004610c3f565b80516020818301810180516002825292820191909301209152546001600160a01b031681565b6040516001600160a01b0390911681526020016100ac565b61019761017a366004610c3f565b805160208183018101805160018252928201919093012091525481565b6040519081526020016100ac565b6100a06101b3366004610dac565b60036020526000908152604090205460ff1681565b61011e6101d6366004610dc5565b610891565b60008061069f565b7f30644e72e131a029b85045b68181585d97816a916871ca8d3c208c16d87cfd478110610214576000805260206000f35b50565b600060405183815284602082015285604082015260408160608360076107d05a03fa91508161024a576000805260206000f35b825160408201526020830151606082015260408360808360066107d05a03fa9150508061027b576000805260206000f35b5050505050565b7f03a901fcac85b5b11450b3c49766477fc01e5aff3a4b4ab323758526be9dde6185527f3011f38b83fb9e775234354ba1e0ff16490977bfb855cac99ed789c1426a729460208601526000608086018661031f87357f1700fa863be1dd74edb8e8a969a2795f8a0bd5dd94c98e11a937004de3f091a37f24797f78c49f4d82fb02fbdf871928765135de74f2674c16912163f87ef60d5a84610217565b61036f60208801357f263599b0396b575e21ee3248f704393e647c33d6e9580033eb8894da73ef82d47f15273ed6a7550a123c301f66798c2724218b80e7965ea13b8b1d2056b0deeb7c84610217565b6103bf60408801357f0b05891bdd1bbd07b851bf62add35518dc5e2966d5327bef691d3f4be64332b57f0e25bea3e05b8182cea74c9d416ef310d7ddde86a38c4324d7042c2340cb043984610217565b50823581527f30644e72e131a029b85045b68181585d97816a916871ca8d3c208c16d87cfd4760208401357f30644e72e131a029b85045b68181585d97816a916871ca8d3c208c16d87cfd4703066020820152833560408201526020840135606082015260408401356080820152606084013560a08201527f2d4d9aa7e302d9df41749d5507949d05dbea33fbb16c643b22f599a2be6df2e260c08201527f14bedd503c37ceb061d8ec60209fe345ce89830a19230301f076caff004d192660e08201527f0967032fcbf776d1afc985f88877f182d38480a653f2decaa9794cbc3bf3060c6101008201527f0e187847ad4c798374d0d6732bf501847dd68bc0e071241e0213bc7fc13db7ab6101208201527f304cfbd1e08a704a99f5e847d93f8c3caafddec46b7a0d379da69a4d112346a76101408201527f1739c1b1a457a8c7313123d24d2f9192f896b7c63eea05a9d57f06547ad0cec8610160820152600087015161018082015260206000018701516101a08201527f198e9393920d483a7260bfb731fb5d25f1aa493335a9e71297e485b7aef312c26101c08201527f1800deef121f1e76426a00665e5c4479674322d4f75edadd46debd5cd992f6ed6101e08201527f090689d0585ff075ec9e99ad690c3395bc4b313370b38ef355acdadcd122975b6102008201527f12c85ea5db8c6deb4aab71808dcb408fe3d1e7690c43d37b4ce6cc0166fa7daa610220820152843561024082015260208501356102608201527f198e9393920d483a7260bfb731fb5d25f1aa493335a9e71297e485b7aef312c26102808201527f1800deef121f1e76426a00665e5c4479674322d4f75edadd46debd5cd992f6ed6102a08201527f090689d0585ff075ec9e99ad690c3395bc4b313370b38ef355acdadcd122975b6102c08201527f12c85ea5db8c6deb4aab71808dcb408fe3d1e7690c43d37b4ce6cc0166fa7daa6102e08201526020816103008360086107d05a03fa9051169695505050505050565b60405161038081016040526106b760008501356101e3565b6106c460208501356101e3565b6106d160408501356101e3565b6106de60608501356101e3565b6106eb818587898b610282565b979650505050505050565b6000806000834660405160200161070e929190610f38565b60408051601f19818403018152919052805160209091012060008080526010828152815182805260809390931b905251909590945092505050565b6000816040516107599190610f5a565b9081526040519081900360200190205460ff161561078a57604051634f2532fb60e11b815260040160405180910390fd5b600160008260405161079c9190610f5a565b908152604051908190036020018120805492151560ff199093169290921790915582906001906107cd908490610f5a565b90815260200160405180910390208190555060006040516107ed90610ad9565b604051809103906000f080158015610809573d6000803e3d6000fd5b5090508060028360405161081d9190610f5a565b90815260405190819003602001812080546001600160a01b03939093166001600160a01b031990931692909217909155429061085a908490610f5a565b6040519081900381209085907fa5a88920e4bae582ff221811f62b87bbac91ac826c9577918f5a37011bb3878390600090a4505050565b833560008061089f846106f6565b90925090506020870135821415806108bb575060408701358114155b156108d957604051638129bbcd60e01b815260040160405180910390fd5b604080518b35602080830191909152808d0135828401528b356060808401919091528c82013560808401528c84013560a08401528c013560c08301528a3560e08301528a810135610100830152893561012083015289810135610140830152898301356101608301524661018080840191909152835180840390910181526101a09092018352815191810191909120600081815260039092529190205460ff1615610997576040516331402b9d60e11b815260040160405180910390fd5b6109a38b8b8b8b6101db565b6109c05760405163274bb09d60e21b815260040160405180910390fd5b83600188886040516109d3929190610f76565b90815260200160405180910390205414610a00576040516318b588ab60e31b815260040160405180910390fd5b600060028888604051610a14929190610f76565b90815260405190819003602001812054631592ca1b60e31b82526001600160a01b03169150819063ac9650d890610a4f908990600401610f86565b600060405180830381600087803b158015610a6957600080fd5b505af1158015610a7d573d6000803e3d6000fd5b50505050806001600160a01b03168888604051610a9b929190610f76565b604051908190038120907f92df050d1333f26cf087ed83dd23bf1c2fa8b8ab859453ab1ca7f2a7abcb268890600090a3505050505050505050505050565b61067d80610f9a83390190565b8060408101831015610af757600080fd5b92915050565b8060808101831015610af757600080fd5b8060608101831015610af757600080fd5b6000806000806101608587031215610b3657600080fd5b610b408686610ae6565b9350610b4f8660408701610afd565b9250610b5e8660c08701610ae6565b9150610b6e866101008701610b0e565b905092959194509250565b634e487b7160e01b600052604160045260246000fd5b604051601f8201601f1916810167ffffffffffffffff81118282101715610bb857610bb8610b79565b604052919050565b600067ffffffffffffffff831115610bda57610bda610b79565b610bed601f8401601f1916602001610b8f565b9050828152838383011115610c0157600080fd5b828260208301376000602084830101529392505050565b600082601f830112610c2957600080fd5b610c3883833560208501610bc0565b9392505050565b600060208284031215610c5157600080fd5b813567ffffffffffffffff811115610c6857600080fd5b610c7484828501610c18565b949350505050565b600082601f830112610c8d57600080fd5b8135602067ffffffffffffffff80831115610caa57610caa610b79565b8260051b610cb9838201610b8f565b9384528581018301938381019088861115610cd357600080fd5b84880192505b85831015610d2457823584811115610cf15760008081fd5b8801603f81018a13610d035760008081fd5b610d148a8783013560408401610bc0565b8352509184019190840190610cd9565b98975050505050505050565b600060208284031215610d4257600080fd5b813567ffffffffffffffff811115610d5957600080fd5b610c7484828501610c7c565b60008060408385031215610d7857600080fd5b82359150602083013567ffffffffffffffff811115610d9657600080fd5b610da285828601610c18565b9150509250929050565b600060208284031215610dbe57600080fd5b5035919050565b60008060008060008060006101a0888a031215610de157600080fd5b610deb8989610ae6565b9650610dfa8960408a01610afd565b9550610e098960c08a01610ae6565b9450610e19896101008a01610b0e565b935061016088013567ffffffffffffffff80821115610e3757600080fd5b818a0191508a601f830112610e4b57600080fd5b813581811115610e5a57600080fd5b8b6020828501011115610e6c57600080fd5b602083019550809450506101808a0135915080821115610e8b57600080fd5b50610e988a828b01610c7c565b91505092959891949750929550565b60005b83811015610ec2578181015183820152602001610eaa565b50506000910152565b600081518084526020808501808196508360051b8101915082860160005b85811015610f2b57828403895281518051808652610f0c81888801898501610ea7565b99860199601f01601f1916949094018501935090840190600101610ee9565b5091979650505050505050565b604081526000610f4b6040830185610ecb565b90508260208301529392505050565b60008251610f6c818460208701610ea7565b9190910192915050565b8183823760009101908152919050565b602081526000610c386020830184610ecb56fe608060405234801561001057600080fd5b5061001a3361001f565b61006f565b600080546001600160a01b038381166001600160a01b0319831681178455604051919092169283917f8be0079c531659141344cd1fd0a4f28419497f9722a3daafe3b4186f6b6457e09190a35050565b6105ff8061007e6000396000f3fe6080604052600436106100435760003560e01c8063715018a61461004f5780638da5cb5b14610066578063ac9650d814610092578063f2fde38b146100a557600080fd5b3661004a57005b600080fd5b34801561005b57600080fd5b506100646100c5565b005b34801561007257600080fd5b50600054604080516001600160a01b039092168252519081900360200190f35b6100646100a0366004610376565b6100d9565b3480156100b157600080fd5b506100646100c0366004610492565b6101e4565b6100cd61025d565b6100d760006102b7565b565b6100e161025d565b60005b81518110156101e0576000806000848481518110610104576101046104b6565b602002602001015180602001905181019061011f91906104f0565b9250925092506000836001600160a01b031683836040516101409190610586565b60006040518083038185875af1925050503d806000811461017d576040519150601f19603f3d011682016040523d82523d6000602084013e610182565b606091505b50509050806101c95760405162461bcd60e51b815260206004820152600e60248201526d0b98d85b1b0a0a4819985a5b195960921b60448201526064015b60405180910390fd5b5050505080806101d8906105a2565b9150506100e4565b5050565b6101ec61025d565b6001600160a01b0381166102515760405162461bcd60e51b815260206004820152602660248201527f4f776e61626c653a206e6577206f776e657220697320746865207a65726f206160448201526564647265737360d01b60648201526084016101c0565b61025a816102b7565b50565b6000546001600160a01b031633146100d75760405162461bcd60e51b815260206004820181905260248201527f4f776e61626c653a2063616c6c6572206973206e6f7420746865206f776e657260448201526064016101c0565b600080546001600160a01b038381166001600160a01b0319831681178455604051919092169283917f8be0079c531659141344cd1fd0a4f28419497f9722a3daafe3b4186f6b6457e09190a35050565b634e487b7160e01b600052604160045260246000fd5b604051601f8201601f1916810167ffffffffffffffff8111828210171561034657610346610307565b604052919050565b600067ffffffffffffffff82111561036857610368610307565b50601f01601f191660200190565b6000602080838503121561038957600080fd5b823567ffffffffffffffff808211156103a157600080fd5b818501915085601f8301126103b557600080fd5b8135818111156103c7576103c7610307565b8060051b6103d685820161031d565b91825283810185019185810190898411156103f057600080fd5b86860192505b838310156104705782358581111561040e5760008081fd5b8601603f81018b136104205760008081fd5b8781013560406104376104328361034e565b61031d565b8281528d8284860101111561044c5760008081fd5b828285018c83013760009281018b01929092525083525091860191908601906103f6565b9998505050505050505050565b6001600160a01b038116811461025a57600080fd5b6000602082840312156104a457600080fd5b81356104af8161047d565b9392505050565b634e487b7160e01b600052603260045260246000fd5b60005b838110156104e75781810151838201526020016104cf565b50506000910152565b60008060006060848603121561050557600080fd5b83516105108161047d565b60208501516040860151919450925067ffffffffffffffff81111561053457600080fd5b8401601f8101861361054557600080fd5b80516105536104328261034e565b81815287602083850101111561056857600080fd5b6105798260208301602086016104cc565b8093505050509250925092565b600082516105988184602087016104cc565b9190910192915050565b6000600182016105c257634e487b7160e01b600052601160045260246000fd5b506001019056fea264697066735822122018767db1107aea816da4d252d745f7ecb537154756bffb6084b2c26cc88adfe064736f6c63430008120033a264697066735822122032d27988a12324cf70621919f1d6f85891ebb8e61bb0b6b004c886f20da31b0764736f6c63430008120033",
  "linkReferences": {},
  "deployedLinkReferences": {}
}