{
  "_format": "hh-sol-artifact-1",
  "contractName": "Wallet",
  "sourceName": "contracts/Wallet.sol",
  "abi": [
    {
      "anonymous": false,
      "inputs": [
        {
          "indexed": true,
          "internalType": "address",
          "name": "previousOwner",
          "type": "address"
        },
        {
          "indexed": true,
          "internalType": "address",
          "name": "newOwner",
          "type": "address"
        }
      ],
      "name": "OwnershipTransferred",
      "type": "event"
    },
    {
      "inputs": [
        {
          "internalType": "bytes[]",
          "name": "_data",
          "type": "bytes[]"
        }
      ],
      "name": "multicall",
      "outputs": [],
      "stateMutability": "payable",
      "type": "function"
    },
    {
      "inputs": [],
      "name": "owner",
      "outputs": [
        {
          "internalType": "address",
          "name": "",
          "type": "address"
        }
      ],
      "stateMutability": "view",
      "type": "function"
    },
    {
      "inputs": [],
      "name": "renounceOwnership",
      "outputs": [],
      "stateMutability": "nonpayable",
      "type": "function"
    },
    {
      "inputs": [
        {
          "internalType": "address",
          "name": "newOwner",
          "type": "address"
        }
      ],
      "name": "transferOwnership",
      "outputs": [],
      "stateMutability": "nonpayable",
      "type": "function"
    },
    {
      "stateMutability": "payable",
      "type": "receive"
    }
  ],
  "bytecode": "0x608060405234801561001057600080fd5b5061001a3361001f565b61006f565b600080546001600160a01b038381166001600160a01b0319831681178455604051919092169283917f8be0079c531659141344cd1fd0a4f28419497f9722a3daafe3b4186f6b6457e09190a35050565b6105ff8061007e6000396000f3fe6080604052600436106100435760003560e01c8063715018a61461004f5780638da5cb5b14610066578063ac9650d814610092578063f2fde38b146100a557600080fd5b3661004a57005b600080fd5b34801561005b57600080fd5b506100646100c5565b005b34801561007257600080fd5b50600054604080516001600160a01b039092168252519081900360200190f35b6100646100a0366004610376565b6100d9565b3480156100b157600080fd5b506100646100c0366004610492565b6101e4565b6100cd61025d565b6100d760006102b7565b565b6100e161025d565b60005b81518110156101e0576000806000848481518110610104576101046104b6565b602002602001015180602001905181019061011f91906104f0565b9250925092506000836001600160a01b031683836040516101409190610586565b60006040518083038185875af1925050503d806000811461017d576040519150601f19603f3d011682016040523d82523d6000602084013e610182565b606091505b50509050806101c95760405162461bcd60e51b815260206004820152600e60248201526d0b98d85b1b0a0a4819985a5b195960921b60448201526064015b60405180910390fd5b5050505080806101d8906105a2565b9150506100e4565b5050565b6101ec61025d565b6001600160a01b0381166102515760405162461bcd60e51b815260206004820152602660248201527f4f776e61626c653a206e6577206f776e657220697320746865207a65726f206160448201526564647265737360d01b60648201526084016101c0565b61025a816102b7565b50565b6000546001600160a01b031633146100d75760405162461bcd60e51b815260206004820181905260248201527f4f776e61626c653a2063616c6c6572206973206e6f7420746865206f776e657260448201526064016101c0565b600080546001600160a01b038381166001600160a01b0319831681178455604051919092169283917f8be0079c531659141344cd1fd0a4f28419497f9722a3daafe3b4186f6b6457e09190a35050565b634e487b7160e01b600052604160045260246000fd5b604051601f8201601f1916810167ffffffffffffffff8111828210171561034657610346610307565b604052919050565b600067ffffffffffffffff82111561036857610368610307565b50601f01601f191660200190565b6000602080838503121561038957600080fd5b823567ffffffffffffffff808211156103a157600080fd5b818501915085601f8301126103b557600080fd5b8135818111156103c7576103c7610307565b8060051b6103d685820161031d565b91825283810185019185810190898411156103f057600080fd5b86860192505b838310156104705782358581111561040e5760008081fd5b8601603f81018b136104205760008081fd5b8781013560406104376104328361034e565b61031d565b8281528d8284860101111561044c5760008081fd5b828285018c83013760009281018b01929092525083525091860191908601906103f6565b9998505050505050505050565b6001600160a01b038116811461025a57600080fd5b6000602082840312156104a457600080fd5b81356104af8161047d565b9392505050565b634e487b7160e01b600052603260045260246000fd5b60005b838110156104e75781810151838201526020016104cf565b50506000910152565b60008060006060848603121561050557600080fd5b83516105108161047d565b60208501516040860151919450925067ffffffffffffffff81111561053457600080fd5b8401601f8101861361054557600080fd5b80516105536104328261034e565b81815287602083850101111561056857600080fd5b6105798260208301602086016104cc565b8093505050509250925092565b600082516105988184602087016104cc565b9190910192915050565b6000600182016105c257634e487b7160e01b600052601160045260246000fd5b506001019056fea264697066735822122018767db1107aea816da4d252d745f7ecb537154756bffb6084b2c26cc88adfe064736f6c63430008120033",
  "linkReferences": {},
  "deployedLinkReferences": {}
}